:100000000C94DD040C9405050C9405050C94050571
:100010000C9405050C9405050C9405050C94050538
:100020000C9405050C9405050C9405050C94FF0C27
:100030000C9405050C9405050C9405050C94050518
:100040000C94B7130C9405050C9405050C94050548
:100050000C9405050C9405050C9405050C940505F8
:100060000C94D10B0C94050500000000000000006A
:100070000000000000000000000000000000000080
:100080000000000000000000000000000000000070
:100090000000000000000000000000000000000060
:1000A0000000000000000000000000000000000050
:1000B0000000000000000000000000001C00000024
:1000C0000000600000000000000000003E00000092
:1000D0000000E000000000000000000071000000CF
:1000E0000001E8000000000000000000E100000046
:1000F0000003E4003000000000000001C100000027
:100100000005F20074000000000000018100000002
:10011000000BFE00770000000000000181000000DD
:10012000000BF900FB8000000000000081000000CF
:10013000001EF101FBE00000000000007F00000055
:10014000003EC0C3FBB000000000000001800000C2
:10015000007EC005DBD80000000000000080000029
:1001600000BAC007FBCC0000000000000000000047
:1001700001F8800BABE6000000000000000000204A
:1001800003788017FBF70000000000000000007CEF
:1001900006788017EDF7800000000000000000D70F
:1001A0000438800FF6F3C00000000000000000904B
:1001B000C830002FBB79E000000000000000010FF4
:1001C0007811005FF9B87000000000600001820B38
:1001D000F010009FBD1C3800000001300001A60790
:1001E000F81000BFFC0C1C000000013C000354018F
:1001F0007C00013F5EC606000000023E0007B8001A
:10020000FE00033F3E6207000000041F000D3C009B
:100210007F00027F7E620FC00000001B800F8E00F7
:100220003F80047FFE623FC000000A1BC01F8E009B
:100230007BC004FFE4E81FB00000140FE01FC30000
:100240007FE008FB61E80B9800002C1DF03FC080A8
:100250007BF009FBC3CD87880000480BF867C0C05E
:100260007BF01179C3CF80C20000B80BFC43E040A3
:10027000FBF8227BC38C40800001B80BFE81E0605C
:10028000BFF820F3C3C4404000027805FF007000AF
:100290009DFC40F3C24040000005F805EF0030002F
:1002A0009FFF80F0C7204000000F7800E700180093
:1002B0000FFE81F0C6104000003F5800E7800C00A0
:1002C00007FF00102610C000007D7800F3800400B6
:1002D00007FF00000C08400000F7B80073C00200E0
:1002E00003FE00000C08000001F7B80071E0018077
:1002F000033E000008080000036FF80040E000C063
:10030000018C0000080800000FDFB00020700042E0
:1003100001C00000080000000FDFFA002058004272
:1003200000E00000040800000FBFB4202058002C9B
:1003300000600000020000001F7FFC30100C003C39
:10034000006000000600000039FF78381024001813
:10035000003000000000000037FF783C1002000071
:1003600000300000000000006F7F787E0811000060
:1003700000180000000000005EFEF07F0809000089
:10038000000000000000000019FED0FF08008000FF
:100390000000000000000000020C91FF840000003B
:1003A0000000000000000000000111FFC400000078
:1003B0000000000000000000000013FFE400000047
:1003C0000000CC3018000600000022FFE40000000E
:1003D0000000EC301800060000000007F4000000E8
:1003E00000FC6F01FB0C7E3E00000007FA000000DD
:1003F00000FE6F37FB0DFEFF00000001FE00000055
:1004000000066C361B0D86C30000000028000000AB
:1004100000FE6C361B0D86C30000000000000000CB
:1004200001FE6C361B0D86FF00000000000000007E
:1004300001866C361B0D86FE0000000000000000E7
:1004400001866C361B0D86C0000000000000000015
:1004500001FE6E37DBEDF6FE00000000000000003C
:1004600001FC6E37D9E1F6FE00000000003E5B4F54
:100470005B3E3E6B4F6B3E1C3E7C3E1C183C7E3C04
:10048000181C577D571C1C5E7F5E1C00183C180012
:10049000FFE7C3E7FF0018241800FFE7DBE7FF30A2
:1004A000483A060E2629792926407F050507407F10
:1004B00005253F5A3CE73C5A7F3E1C1C08081C1C83
:1004C0003E7F14227F22145F5F005F5F06097F0179
:1004D0007F006689956A606060606094A2FFA29464
:1004E00008047E040810207E201008082A1C080832
:1004F0001C2A08081E101010100C1E0C1E0C303880
:100500003E3830060E3E0E06000000000000005F80
:1005100000000007000700147F147F14242A7F2A9C
:10052000122313086462364956205000080703005E
:10053000001C2241000041221C002A1C7F1C2A08AA
:10054000083E08080080703000080808080800000D
:1005500060600020100804023E5149453E00427F81
:10056000400072494949462141494D331814127FD0
:100570001027454545393C4A494931412111090770
:100580003649494936464949291E000014000000F1
:1005900040340000000814224114141414140041C3
:1005A00022140802015909063E415D594E7C121180
:1005B000127C7F494949363E414141227F414141B8
:1005C0003E7F494949417F090909013E4141517333
:1005D0007F0808087F00417F41002040413F017FA4
:1005E000081422417F404040407F021C027F7F046C
:1005F00008107F3E4141413E7F090909063E4151B5
:10060000215E7F09192946264949493203017F01A4
:10061000033F4040403F1F2040201F3F4038403FA5
:10062000631408146303047804036159494D4300BB
:100630007F4141410204081020004141417F0402F2
:100640000102044040404040000307080020545489
:1006500078407F2844443838444444283844442867
:100660007F385454541800087E090218A4A49C78BA
:100670007F0804047800447D40002040403D007F16
:100680001028440000417F40007C047804787C08F6
:100690000404783844444438FC18242418182424CA
:1006A00018FC7C08040408485454542404043F44AF
:1006B000243C4040207C1C2040201C3C4030403CDE
:1006C00044281028444C9090907C4464544C44003E
:1006D00008364100000077000000413608000201A2
:1006E0000204023C2623263C1EA1A161123A40408E
:1006F000207A38545455592155557941225454780B
:1007000042215554784020545579400C1E527212A3
:10071000395555555939545454593955545458002C
:1007200000457C410002457D420001457C407D1230
:1007300011127DF0282528F07C5455450020545492
:100740007C547C0A097F4932494949323A4444443D
:100750003A324A4848303A4141217A3A4240207878
:10076000009DA0A07D3D4242423D3D4040403D3C79
:1007700024FF2424487E4943662B2FFC2F2BFF099E
:1007800029F620C0887E0903205454794100004492
:100790007D413048484A32384040227A007A0A0A7D
:1007A000727D0D19317D2629292F282629292926F0
:1007B00030484D4020380808080808080808382F35
:1007C00010C8ACBA2F102834FA00007B00000814BF
:1007D0002A142222142A14085500550055AA55AA95
:1007E00055AAFF55FF55FF000000FF00101010FF35
:1007F00000141414FF001010FF00FF1010F010F090
:10080000141414FC001414F700FF0000FF00FF1480
:1008100014F404FC141417101F10101F101F1414CC
:10082000141F00101010F0000000001F1010101016
:100830001F10101010F010000000FF10101010100A
:1008400010101010FF10000000FF140000FF00FF48
:1008500000001F10170000FC04F4141417101714E4
:1008600014F404F40000FF00F71414141414141406
:10087000F700F7141414171410101F101F14141479
:10088000F4141010F010F000001F101F0000001FE3
:1008900014000000FC140000F010F01010FF10FF16
:1008A000141414FF141010101F00000000F010FFAB
:1008B000FFFFFFFFF0F0F0F0F0FFFFFF000000008F
:1008C00000FFFF0F0F0F0F0F3844443844FC4A4A13
:1008D0004A347E02020606027E027E0263554941C8
:1008E000633844443C04407E201E2006027E0202FF
:1008F00099A5E7A5991C2A492A1C4C7201724C3013
:100900004A4D4D303048784830BC625A463D3E49E9
:100910004949007E0101017E2A2A2A2A2A44445F8D
:10092000444440514A444040444A51400000FF0181
:1009300003E080FF000008086B6B0836123624368F
:10094000060F090F060000181800000010100030F4
:1009500040FF0101001F01011E00191D1712003C7C
:100960003C3C3C00000000000000000800020100C8
:100970000003040700000000000000000000000069
:10098000250028002B0000000000240027002A007A
:100990000404040404040404020202020202030325
:1009A000030303030102040810204080010204082D
:1009B0001020010204081020BB1511241FBECFEF28
:1009C000D8E0DEBFCDBF15E0A0E0B1E0E2E0FAE3A1
:1009D00002C005900D92A23AB107D9F726E0A2EA2B
:1009E000B5E001C01D92AB35B207E1F714E0CDEDE3
:1009F000D4E004C02197FE010E94B616CC3DD10779
:100A0000C9F70E94CC150C94FF1C0C940000EF92C7
:100A1000FF920F931F93DC01ED91FC9111971A96B1
:100A20000D911C911B9718962D913C911997068456
:100A3000F785E02D7B0140E050E060E070E0099533
:100A40001F910F91FF90EF9008956F927F928F9278
:100A50009F92AF92BF92CF92DF92EF92FF920F934D
:100A60001F93CF93DF936C015A014801EB013B01C7
:100A7000620E731EC615D70574F4D601ED91FC9174
:100A80000084F185E02D87019401A501BE01C60116
:100A900009952196EFCFDF91CF911F910F91FF9094
:100AA000EF90DF90CF90BF90AF909F908F907F900E
:100AB0006F900895EF92FF920F931F93DC01ED91D9
:100AC000FC91260F371F215031090680F781E02D58
:100AD00078018A0109951F910F91FF90EF90089579
:100AE000EF92FF920F931F937801DC01ED91FC913F
:100AF000240F351F8901015011090680F781E02D6F
:100B00009B0109951F910F91FF90EF9008956F92AF
:100B10007F928F929F92AF92BF92CF92DF92EF928D
:100B2000FF920F931F93CF93DF93EC014B015A0178
:100B300069013801E881F9810284F385E02D87019C
:100B40000995E881F981A501460D571D41505109CC
:100B50000284F385E02D9601B401CE010995E88168
:100B6000F9810084F185E02D9301A501B401CE0146
:100B70000995E881F981C80CD91CB6016150710949
:100B80000084F185E02D9301A501CE010995DF9147
:100B9000CF911F910F91FF90EF90DF90CF90BF907A
:100BA000AF909F908F907F906F9008952F923F927B
:100BB0004F925F926F927F928F929F92AF92BF926D
:100BC000CF92DF92EF92FF920F931F93CF93DF9319
:100BD00000D01F92CDB7DEB74C017B836A836A01D8
:100BE000590117019801241B350B37FF03C03195BC
:100BF00021953109C5014A815B81841B950B97FFC3
:100C000003C091958195910951E05983821793070B
:100C100014F019820BC09A2D8B2D5801092F182F13
:100C20009A818B81DB82CA82C92ED82E8A819B81D0
:100C3000A816B9065CF49C2D8D2D6801092F182F7C
:100C40009A818B81BB82AA82A92EB82E2501AA8106
:100C5000BB814A1A5B0A38016C187D0877FE03C015
:100C6000719461947108720157FE03C0BFEFEB1AD3
:100C7000FB0AF594E794C016D1061CF00FEF1FEFA6
:100C80001FC001E010E01CC0D401ED91FC91B981BE
:100C90000480F581E02D9101BB23C1F04A815B8185
:100CA000B601C4010995E618F708F7FE04C0C00EA6
:100CB000D11EE40CF51CEA81FB813196FB83EA83AB
:100CC0004A815B81A416B506FCF604C0A6016A81C0
:100CD0007B81E7CF0F900F900F90DF91CF911F9105
:100CE0000F91FF90EF90DF90CF90BF90AF909F90CB
:100CF0008F907F906F905F904F903F902F900895CE
:100D00000F931F93CF93DF93DC0155968C915597EA
:100D1000823071F0833009F1813009F08CC0149673
:100D2000ED91FC911597E41BF50BE21BF30B20C032
:100D30001496ED91FC911597CF01861B970BBC0182
:100D4000615071091696ED91FC911797CF01841BA4
:100D5000950BAC01421B530B6EC01696ED91FC91A6
:100D60001797CF01861B970BBC0161507109FA01DF
:100D700077FD1BC116968D919C911797681779077F
:100D80000CF013C1F7FF04C02E0F3F1FE0E0F0E0AE
:100D900014968D919C911597AF01420F531F8417A4
:100DA00095071CF49C012E1B3F0B121613060CF02A
:100DB000FCC0CB0177FD079643E0959587954A9552
:100DC000E1F79695982F882797958795E80FF91F53
:100DD000E050FF4F6770772781E090E001C0880FF7
:100DE0006A95EAF7482F0130110541F088F002308A
:100DF000110509F0DAC02E0F3F1F15C02E0F3F1F3F
:100E0000E217F30709F4D1C08081842B8193F8CFD6
:100E100080952E0F3F1FE217F30709F4C6C090819B
:100E200098239193F8CFE217F30709F4BEC08081AD
:100E300084278193F8CF77FDB8C014968D919C914B
:100E40001597681779070CF0B0C057FF04C0240F3E
:100E5000351F40E050E016968D919C911797FA014E
:100E6000E20FF31F8E179F071CF49C01241B350B08
:100E7000121613060CF099C0A22F842F8695869522
:100E8000869590E8899F600D711D1124FB01E0504B
:100E9000FF4F4770A9F198E0941B492F50E0EA01F9
:100EA000CA5DDA4F8881291790F4421B51092FEF50
:100EB00030E002C0359527954A95E2F7822301304C
:100EC000110541F068F00230110589F06EC0013063
:100ED000110519F42081822B0CC00130110520F47A
:100EE00080952081822305C00230110531F42081D4
:100EF00082278083A91708F458C0A91BE058FF4F28
:100F0000A83048F10230110559F4EF018A2F988179
:100F100090959883C058DF4F88508830C0F730C014
:100F200081E00130110509F080E08195EF019A2FF1
:100F30008883C058DF4F98509830D0F788EF8A0FD9
:100F400086958695869590E8899FE00DF11D112480
:100F5000E058FF4FA770AA2341F1B0E0A25EBA4F5C
:100F60008C910130110529F038F002301105D1F0D3
:100F70001CC09081892B18C080959081892314C052
:100F800088EF8A0F86958695869590E8899FE00D73
:100F9000F11D1124E058FF4FA77039F0B0E0A25EB8
:100FA000BA4F8C91908189278083DF91CF911F91D7
:100FB0000F9108950F931F93CF93DF93DC01FB01F3
:100FC00055968C915597823081F0833019F181309C
:100FD00051F514968D919C911597BC01641B750B6E
:100FE000AB0141505109BF0181C014966D917C91B4
:100FF0001597CB018E1B9F0BFC0116968D919C9132
:101000001797BC01641B750BAB0141505109E21BE2
:10101000F30B09C016966D917C9117976E1B7F0B91
:10102000621B730B63C057FD1CC116968D919C917A
:101030001797481759070CF014C1F7FF04C02E0F7B
:101040003F1FE0E0F0E014968D919C911597BF0151
:10105000620F731F861797071CF49C012E1B3F0B12
:10106000121613060CF0FDC0CA0157FD079663E087
:10107000959587956A95E1F79695982F8827979586
:101080008795E80FF91FE050FF4F4770552781E023
:1010900090E001C0880F4A95EAF7482F013011050A
:1010A00041F088F00230110509F0DBC02E0F3F1F20
:1010B00015C02E0F3F1FE217F30709F4D2C080813D
:1010C000842B8193F8CF80952E0F3F1FE217F307F3
:1010D00009F4C7C0908198239193F8CFE217F307E2
:1010E00009F4BFC0808184278193F8CF57FDB9C030
:1010F00014968D919C911597481759070CF0B1C023
:1011000077FF04C0260F371F60E070E016968D91C0
:101110009C911797FB01E20FF31F8E179F071CF49A
:101120009C01261B370B121613060CF09AC0A22F37
:10113000862F86958695869590E8899F400D511D4E
:101140001124FA01E050FF4F6770A9F198E0961B57
:10115000492F50E0EA01CA5DDA4F8881291790F4DF
:10116000421B51092FEF30E002C0359527954A9573
:10117000E2F782230130110541F068F002301105D9
:1011800089F06FC00130110519F42081822B0CC049
:101190000130110520F480952081822305C00230A2
:1011A000110531F4208182278083A91708F459C0E2
:1011B000A91BE058FF4FA83048F10230110559F43F
:1011C000EF018A2F988190959883C058DF4F8850FF
:1011D0008830C0F731C081E00130110509F080E0AE
:1011E0008195EF019A2F8883C058DF4F985098302F
:1011F000D0F788EF8A0F86958695869560E8869F5A
:10120000E00DF11D1124E058FF4FA770AA2349F10A
:10121000B0E0A25EBA4F8C910130110529F038F090
:1012200002301105D9F01DC09081892B03C0809533
:1012300090818923808315C088EF8A0F86958695D3
:10124000869570E8879FE00DF11D1124E058FF4F4F
:10125000A77039F0B0E0A25EBA4F8C9190818927D7
:10126000E9CFDF91CF911F910F910895FC0177FD98
:101270009AC080859185681779070CF094C057FD56
:1012800092C082859385481759070CF08CC08589D8
:10129000823009F07CC084819581DC01A61BB70BEC
:1012A000BD016150710986819781FC01E41BF50B3A
:1012B000AF01415051090AC0813041F484819581C8
:1012C000841B950BAB01BC016150710921303105C4
:1012D00029F008F122303105E1F10895FA0157FDB6
:1012E0003796A3E0F595E795AA95E1F7F695FE2FD9
:1012F000EE27F795E7956E0F7F1FFB01E050FF4F3C
:101300004770552781E090E001C0880F4A95EAF7C1
:101310009081892B3AC0FA0157FD379623E0F59565
:10132000E7952A95E1F7F695FE2FEE27F795E795D5
:101330006E0F7F1FFB01E050FF4F4770552781E084
:1013400090E001C0880F4A95EAF780959081892343
:101350001CC0FA0157FD379683E0F595E7958A950D
:10136000E1F7F695FE2FEE27F795E7956E0F7F1FB5
:10137000FB01E050FF4F4770552781E090E001C02E
:10138000880F4A95EAF790818927808308958330F2
:1013900009F092CF86819781861B970BBA01AC0129
:1013A0004150510993CF0895089581E090E0309124
:1013B000A3052091A205321710F480E090E09195EA
:1013C0008195910908958091A3059091A2058917AF
:1013D00030F48F5F8093A30580E090E008958FEF55
:1013E0009FEF08958091A20590E02091A305821BB4
:1013F0009109089585ED8093BC008091BC0084FD27
:10140000FCCF1092150608954091C605262F30E0B6
:10141000240F311D21323105DCF4209115062430D2
:10142000C9F4FC0180E090E0861758F43091C605BD
:101430002191DC01AC55BA4FA30FB11D2C9301963D
:10144000F3CF8091C605680F6093C60580E00895CC
:1014500081E0089582E00895CF92DF92EF92FF92AB
:101460000F931F93CF93DF937C01262F972F8A0131
:1014700080912206882391F0C62FD72F6E01C40ECB
:10148000D51ECC15DD0571F06991D701ED91FC9168
:101490000190F081E02DC7010995F3CF642F822FD1
:1014A0000E94040AC801DF91CF911F910F91FF9014
:1014B000EF90DF90CF900895CF93DF931F92CDB739
:1014C000DEB76983209122062223D1F020914506C0
:1014D000203240F021E030E0FC013383228380E0C1
:1014E00090E015C080912306E82FF0E0EC5DF94F05
:1014F000998190838F5F809323068093450605C072
:1015000061E0CE0101960E94040A81E090E00F9014
:10151000DF91CF910895AF92BF92CF92EF92FF9259
:101520000F931F93CF93DF93EC01262F888D998D16
:10153000009709F042C06A3069F42C898E859F8536
:1015400038E0239F800D911D11249F878E871D8673
:101550001C86ACC06D3009F4A9C08E898823C1F007
:101560003C898C859D8546E0349F800D911D11241A
:1015700048855985841795075CF01D861C868E85E5
:101580009F85E8E03E9F800D911D11249F878E87E7
:10159000EA88FB88088919894E855F856C857D8579
:1015A000CC88CE010E9415142C898C859D85F6E08F
:1015B0002F9F800D911D112441C06A3079F41D8642
:1015C0001C862C89FC013696E4918E859F852E9F82
:1015D000800D911D11249F878E8768C06D3009F49E
:1015E00065C0AC014C5F5F4FFA013491631708F49A
:1015F0005DC03196E491E61708F458C0FA014491B1
:10160000362F341BFC013296A590B490F7E03F9F33
:10161000A00CB11C1124F501329634913196E4915D
:10162000332311F0E1110DC0F5013496E4912C89BA
:101630008C859D85E29F800D911D11249D878C874F
:1016400035C0F501359644915E89552311F16C89B9
:10165000E32FF0E0E40FF11D47FDFA956E9FD001F6
:101660006F9FB00D11244C855D854A0F5B1FE88587
:10167000F9854E175F076CF01D861C86FC013696B7
:10168000E4918E859F856E9F800D911D11249F870B
:101690008E87EA88FB88088919894E855F856C8565
:1016A0007D85CC88CE010E941514BECF81E090E0EC
:1016B000DF91CF911F910F91FF90EF90CF90BF904E
:1016C000AF900895FC0181A1882339F06EBD000020
:1016D0000DB407FEFDCF8EB5089528E030E090E808
:1016E000A4A1B5A14C9183A5809584238C93A2A13C
:1016F000B3A182A5492F462319F04C91842B03C036
:101700004C91809584238C93A4A1B5A14C9183A581
:10171000842B8C9396952150310911F708951F93CE
:10172000CF93DF93EC01162F8C8D8F3F09F1EEA143
:10173000FFA190818CA5892B8083E8A5F9A59081D4
:101740008DA5809589238083EEA1FFA190818CA532
:10175000809589238083CE010E94620BEEA1FFA1B8
:1017600090818CA5892B8083DF91CF911F91089563
:101770008A8D91E09093220680934406109223066E
:101780001092450660E086E196E00E945C0A612FB7
:1017900086E196E00E945C0ADF91CF911F910C9444
:1017A000A9111F920F920FB60F9211242F933F93FE
:1017B0004F935F936F937F938F939F93AF93BF9359
:1017C000EF93FF938091B900887F803609F49CC025
:1017D00068F5883209F45BC090F4803109F454C094
:1017E00038F4882309F4F6C0883009F44DC0F6C0F7
:1017F000883109F44CC0803209F45DC0EFC08034F8
:1018000009F468C048F4803309F455C0883309F0FE
:10181000E5C080931306D8C0803509F44FC08835E1
:1018200009F45DC0883409F0D9C0D6C0883909F4FC
:10183000C7C0A8F4883709F467C038F4883609F4BB
:1018400063C0803709F460C0C9C0883809F4B8C0E3
:10185000803909F45FC0803809F0C0C05BC0803BAC
:1018600009F486C038F4803A09F466C0883A09F46D
:101870007FC0B4C0803C09F4A7C0883C09F4A4C070
:10188000883B09F48AC0AAC08091F00510C09091ED
:10189000120680911106981770F5E091120681E00A
:1018A0008E0F80931206F0E0EF50FA4F8081809304
:1018B000BB0085EC86C0809313068EC0E0911206B3
:1018C00081E08E0F809312068091BB00F0E0EF5014
:1018D000FA4F808390911206809111066EC0E091BC
:1018E000120681E08E0F809312068091BB00F0E01B
:1018F000EF50FA4F80838091140681116DC081E012
:101900008093EF0584EA61C083E08093150610920E
:10191000EA05CFCF8091EA05803208F051C0E0910E
:10192000EA0581E08E0F8093EA058091BB00F0E02C
:10193000E653FA4F8083BDCF85EC8093BC001092B4
:1019400015068091EA05803230F4E091EA05F0E076
:10195000E653FA4F10826091EA0570E0E091C80505
:10196000F091C9058AEC95E009951092EA0536C018
:1019700084E0809315061092C7051092C605E09189
:10198000C405F091C50509958091C605811105C072
:1019900081E08093C6051092A405E091C70581E01F
:1019A0008E0F8093C705F0E0EC55FA4F808180934D
:1019B000BB009091C7058091C605981708F479CFB0
:1019C00085E88093BC000AC085EC8093BC0010922F
:1019D000150604C0109213060E94FA09FF91EF91B8
:1019E000BF91AF919F918F917F916F915F914F9137
:1019F0003F912F910F900FBE0F901F9018951F923F
:101A00000F920FB60F9211240F931F932F933F93B2
:101A10004F935F936F937F938F939F93AF93BF93F6
:101A2000EF93FF930E9426130091EB051091EC05B4
:101A30002091ED053091EE0560177107820793073D
:101A400010F00E948410FF91EF91BF91AF919F9190
:101A50008F917F916F915F914F913F912F911F9146
:101A60000F910F900FBE0F901F901895BF92CF92BD
:101A7000DF92EF92FF920F931F93CF93DF93DC01DE
:101A80001296CD90DC901397E12CF12C00E010E041
:101A9000C0E0D0E0CE0187709927892B11F0BB0CF4
:101AA0000BC0FE0183E0F595E7958A95E1F7EE0D11
:101AB000FF1DE859FF4FB490B7FE0CC0D601ED9161
:101AC000FC910480F581E02D21E030E0A801BE0109
:101AD000C60109952196C038D105E1F60F5F1F4F69
:101AE000B0E1EB0EF11C0034110591F6DF91CF91BE
:101AF0001F910F91FF90EF90DF90CF90BF900895CE
:101B00000895DC0112968D919C911397009739F0FE
:101B1000DC01ED91FC910280F381E02D09940895A0
:101B20002F923F924F925F926F927F928F929F92ED
:101B3000AF92BF92CF92DF92EF92FF920F931F93DB
:101B4000CF93DF93CDB7DEB7A8970FB6F894DEBF7B
:101B50000FBECDBF1C014A015B0128013901CDA296
:101B6000DEA2EFA2F8A680E094E0E0E0F1E0DF0181
:101B70009C011D9221503040E1F720E030E040E828
:101B800051E4C501B4010E9464186B017C0120E09E
:101B900030E0A9010E945F1818161CF4C701B601B5
:101BA00003C0C701B60190580E949B17262FC22E72
:101BB000D72E31E2C316D1041CF050E2C52ED12C31
:101BC00020E030E0A901C501B4010E945F1887FD43
:101BD00008C080E290E0DC01AC19BD09BCA3ABA356
:101BE00004C0E0E2F0E0FCA3EBA3D10112968D91DA
:101BF0009C911397DC01ED91FC910484F585E02D17
:101C0000EE24E394F12C00E410E024E130E040E025
:101C100050E060E070E00995F10182819381DC0180
:101C2000ED91FC910680F781E02D00E210E023E1C8
:101C300030E040E250E060E070E00995F10182811F
:101C40009381DC01ED91FC910684F785E02D8601FE
:101C500024E130E04BA15CA160E070E00995D10186
:101C60001296ED91FC91139781E0848B20E030E097
:101C700040E251E4C501B4010E9464186B017C018B
:101C800020E030E0A9010E945F1820E030E040E051
:101C90005FE387FD05C0C701B6010E94BD1604C001
:101CA000C701B6010E94BC160E949B170E94D31761
:101CB000D1011296ED91FC91139729E1A22EB12C3E
:101CC000B586A48617861686CC24C394D12CD18AD7
:101CD000C08A138A128A20E030E040E251E40E9478
:101CE0002917AB01BC018E01065E1F4FC8010E947F
:101CF00025121F930F938CE795E09F938F93FE011E
:101D000031967F01FF93EF930E94271AB701D1010B
:101D100012968D919C9113970E940114D1011296F5
:101D2000ED91FC911397B586A4868BE190E097879F
:101D30008687D18AC08A138A128AB301A201C80198
:101D40000E9425121F930F9388E895E09F938F932D
:101D5000FF92EF920E94271AB701F10182819381CD
:101D60000E940114D1011296ED91FC911397B58652
:101D7000A48686E390E097878687D18AC08A138AF3
:101D8000128A4DA15EA16FA178A5C8010E942512FB
:101D90008FEF8F9387EF8F931F930F9382E995E0D7
:101DA0009F938F93FF92EF920E94271AB701F10140
:101DB000828193810E940114D10112960D911C9190
:101DC000139761E2C8010E948F0B60E0C8010E9476
:101DD0008F0B6FE7C8010E948F0B62E2C8010E945F
:101DE0008F0B60E0C8010E948F0B67E0C8010E9462
:101DF0008F0B0FB6F894DEBF0FBECDBFD8015C9637
:101E00008C915C978F3FC1F19696ED91FC919797DD
:101E100090819C968C919C97892B80839896ED91CC
:101E2000FC91999790819D968C919D97892B8083A9
:101E30009696ED91FC91979790819C968C918095C8
:101E40008923808390E0E92E91E0F92EF7016191DA
:101E50007F01C8010E94620BF0E0EF16F5E0FF067B
:101E6000A9F7D8019696ED91FC91979790819C9651
:101E70008C91892B808337C0B090B8008CE0809320
:101E8000B80080E0E82E81E0F82EAA24A394F8019F
:101E9000828DA0922206809344061092230610920F
:101EA000450660E486E196E00E945C0AC12CD12CD4
:101EB000F701EC0DFD1D608186E196E00E945C0A51
:101EC000FFEFCF1ADF0A20E1C216D10489F70E9482
:101ED000A91130E1E30EF11C80E0E81685E0F80678
:101EE000B1F6B092B800A8960FB6F894DEBF0FBE58
:101EF000CDBFDF91CF911F910F91FF90EF90DF90B9
:101F0000CF90BF90AF909F908F907F906F905F9099
:101F10004F903F902F90089508950F931F93CF9364
:101F2000DF938C018EE290E00E94F518EC011B8299
:101F30001A8280E890E09D838C8320E430E03F8328
:101F40002E83998788873B872A871D8A1D861C8652
:101F50001F861E8621E02C8B4FEF5FEF5B8B4A8B39
:101F6000598B488B2E8B1F8A198E188E82E395E031
:101F7000998388839FEF9C8F98A39E8F9D8F84E089
:101F80008F8FD8011396DC93CE93129782E08B8FBC
:101F90008CE38A8F1092A3051092A205109223065B
:101FA0001092450610921506209314061092EF0524
:101FB00061E082E10E94A01261E083E10E94A01230
:101FC0008091B9008E7F8093B9008091B9008D7F98
:101FD0008093B90088E48093B80085E48093BC00C6
:101FE0008F8D87FD1AC00E94061261E08F8D0E94BE
:101FF000A01261E070E080E090E00E94EC1260E0EE
:102000008F8D0E94A0126AE070E080E090E00E9454
:10201000EC1261E08F8D0E94A0126EEACE010E9448
:102020008F0B65EDCE010E948F0B60E8CE010E9400
:102030008F0B68EACE010E948F0B6FE3CE010E94E6
:102040008F0B63EDCE010E948F0B60E0CE010E94EA
:102050008F0B60E4CE010E948F0B6DE8CE010E94D1
:102060008F0B64E1CE010E948F0B60E2CE010E94D3
:102070008F0B60E0CE010E948F0B61EACE010E94BF
:102080008F0B68ECCE010E948F0B6AEDCE010E948F
:102090008F0B62E1CE010E948F0B61E8CE010E949E
:1020A0008F0B6FECCE010E948F0B69EDCE010E9469
:1020B0008F0B61EFCE010E948F0B6BEDCE010E9462
:1020C0008F0B60E4CE010E948F0B64EACE010E9468
:1020D0008F0B66EACE010E948F0B6EE2CE010E944A
:1020E0008F0B6FEACE010E948F0B80E094E0E0E05E
:1020F000F1E0DF019C011D9221503040E1F7DF91BA
:10210000CF911F910F910895EFE6F0E080818D7FD0
:10211000808382E08093810081E080938000299811
:102120002A9808958F929F92AF92BF92CF92DF929A
:10213000EF92FF92CF93DF93CDB7DEB76A017B01B9
:1021400020E030E040E05FE3C701B6010E945F1885
:102150001816ECF5C501B4010E94D3172AE939E934
:1021600049E15FE30E9464180E94A2174B015C01E1
:1021700020E030E046E153E4C701B6010E94641854
:1021800020E030E84CE254E40E94BD160E94A21701
:10219000611571058105910561F4DF91CF91FF9083
:1021A000EF90DF90CF90BF90AF909F908F900C9466
:1021B0008410A5019401DF91CF91FF90EF90DF9003
:1021C000CF90BF90AF909F908F900C943213DF917F
:1021D000CF91FF90EF90DF90CF90BF90AF909F9006
:1021E0008F9008950F931F93CF93DF93EC012BA152
:1021F0003CA18C8D9D8D28173907F4F58E8D882391
:1022000089F00E9426130F8D18A129A13AA1DC01A3
:10221000CB01801B910BA20BB30B84369105A1055A
:10222000B10550F10E9426136F8F78A389A39AA35A
:1022300081E08E8F8BA19CA101969CA38BA3880F1C
:10224000991FC80FD91F688179811616170674F473
:10225000072E000C880B990B24E630E040E050E09C
:10226000DF91CF911F910F910C943213DF91CF9199
:102270001F910F910C948410DF91CF911F910F91BA
:1022800008953FB7F8948091530690915406A09119
:102290005506B091560626B5A89B05C02F3F19F0EC
:1022A0000196A11DB11D3FBFBA2FA92F982F8827D6
:1022B000820F911DA11DB11DBC01CD0142E0660F31
:1022C000771F881F991F4A95D1F70895CF92DF9203
:1022D000EF92FF920F931F93CF93DF936C017A01DC
:1022E0008B01C0E0D0E0CE15DF0589F0D8016D91FB
:1022F0008D01D601ED91FC910190F081E02DC60198
:102300000995892B11F47E0102C02196ECCFC701FB
:10231000DF91CF911F910F91FF90EF90DF90CF90C1
:10232000089508950E94221A6115710579F0FB0144
:1023300001900020E9F73197AF01461B570BDC01F4
:10234000ED91FC910280F381E02D099480E090E012
:1023500008952091450690914406213208F04AC024
:10236000809115068111FCCF32E03093150631E0E3
:10237000309314063FEF3093130610921206209309
:102380001106A4E2B6E041EF55E0FA013E2F341BFE
:10239000321718F43D913193F9CF1092F005209146
:1023A000F005990F922B9093F0059091EF059130E5
:1023B00061F41092EF059091F0059093BB0090911D
:1023C000BC0093FDF8CF95EC01C095EE9093BC0056
:1023D000909115069230E1F3909113069F3F79F0AA
:1023E00080911306803241F080911306803331F0E2
:1023F00084E005C081E003C082E001C083E0109268
:1024000023061092450610922206089590E0FC01E2
:10241000EC55F64F2491FC01E057F64F8491882348
:1024200099F090E0880F991FFC01EA57F64FA591AB
:10243000B491FC01E458F64F859194918FB7F894CC
:10244000EC91E22BEC938FBF08958F929F92AF9205
:10245000BF92EF92FF920F931F93CF93DF93EC0104
:102460004A015B0120E030E040E251E4C501B401E3
:102470000E9464180E949B177B0177FF04C0EE2422
:10248000FF24E61AF70A870120E030E0A901C50120
:10249000B4010E945F1887FF02C04DE201C04BE209
:1024A000B70120E030E0EAE0F0E06115710539F0B5
:1024B000CB01BF010E946C162F5F3F4FF6CFFE018C
:1024C00037962730310544F0DE018DE28D93AE174B
:1024D000BF07E1F71F8229C0188620E030E08AE0BC
:1024E000E82EF12C90E2B92E50E3A52E6EE2962E46
:1024F0002130310511F4908211C00115110539F414
:102500002330310514F4A08209C0B08207C0C8018D
:10251000B7010E946C16805D80838B012F5F3F4F57
:102520003197EC17FD0721F74083DF91CF911F9181
:102530000F91FF90EF90BF90AF909F908F90089574
:1025400090E0FC01E859F64F3491FC01EC55F64F50
:102550002491FC01E057F64FE491EE2309F43BC0CF
:10256000332339F1333091F038F43130A9F032307F
:1025700001F584B58F7D12C0373091F03830A1F06D
:102580003430B9F4809180008F7D03C08091800049
:102590008F77809380000DC084B58F7784BD09C08C
:1025A0008091B0008F7703C08091B0008F7D8093C1
:1025B000B000F0E0EE0FFF1FE458F64FA591B49184
:1025C0008FB7F894EC91611103C020952E2301C0C0
:1025D0002E2B2C938FBF08958F929F92AF92BF9214
:1025E000CF92DF92EF92FF926B017C010E9441112A
:1025F0004B015C01C114D104E104F104F1F00E942B
:102600004111DC01CB0188199909AA09BB09883E4F
:102610009340A105B10570F321E0C21AD108E10889
:10262000F10888EE880E83E0981EA11CB11CC1142D
:10263000D104E104F10419F7DDCFFF90EF90DF90B2
:10264000CF90BF90AF909F908F9008952FB7F89440
:1026500060914F06709150068091510690915206FC
:102660002FBF08954F925F926F927F928F929F92A9
:10267000AF92BF92CF92DF92EF92FF92CF936B0116
:102680007C0129013A0184B1866084B960E072E17D
:102690008AE790E0A70196010E94801669017A01FD
:1026A00081E0C81AD108E108F108C114D10481E021
:1026B000E806F10458F0CD2CDE2CEF2CFF2481E04D
:1026C000C81AD108E108F108C4E001C0C1E0460120
:1026D0005701B694A79497948794411451046104C8
:1026E0007104A9F00E942613DC01CB01840D951D15
:1026F000A61DB71D8093EB059093EC05A093ED0507
:10270000B093EE0590916F00926090936F00D0921D
:102710008700C0928600409184005091850060E05F
:1027200070E0C416D506E606F70620F4D0928500C0
:10273000C09284008C2F80618093810090928B00E6
:1027400080928A00909289008092880080EB80932A
:102750008000CF91FF90EF90DF90CF90BF90AF902F
:102760009F908F907F906F905F904F9008951F92F1
:102770000F920FB60F9211242F933F938F939F9335
:10278000AF93BF9380914F0690915006A091510650
:10279000B091520630914E0623E0230F2D3720F4DE
:1027A0000196A11DB11D05C026E8230F0296A11DAB
:1027B000B11D20934E0680934F0690935006A09330
:1027C0005106B09352068091530690915406A09101
:1027D0005506B09156060196A11DB11D8093530672
:1027E00090935406A0935506B0935606BF91AF91AF
:1027F0009F918F913F912F910F900FBE0F901F903F
:1028000018950F931F93CF93DF93EC010E949411BF
:102810008C016EE975E0CE010E949411800F911F2A
:10282000DF91CF911F910F9108952F923F924F9278
:102830005F926F927F928F929F92AF92BF92CF9250
:10284000DF92EF92FF920F931F93CF93DF93CDB759
:10285000DEB76B970FB6F894DEBF0FBECDBF4C014D
:102860005A8349831F830E83FD82EC82CB82DC0175
:1028700058964D915C9159974115510509F0A5C0A5
:1028800018968D919C911997681779070CF05AC189
:102890001A968D919C911B97E981FA81E817F907A7
:1028A0000CF050C1D12CCB013B81F6E03F9F800D55
:1028B000911D1124181619060CF044C1C60133E00D
:1028C000880F991F3A95E1F749815A81840F951F26
:1028D000181619060CF036C157968C91811103C059
:1028E000203B08F02F5F55E0259F900111247E8743
:1028F0006D875B01212CC901861B970B99878887FF
:10290000A981BA811896BB87AA87B5E02B1641F03A
:10291000E885F985EA0DFB1DE859FB4F349001C0AD
:10292000312C69807A80230130FE12C0D401ED91F0
:10293000FC91BB81B13031F40480F581E02D2E8112
:102940003F8118C00684F785E02DEE80FF801CC013
:10295000EC81FD812E813F81E217F307E1F0D40184
:10296000ED91FC91BB81B13051F40480F581E02DF3
:102970002C813D81A301B501C40109950CC00684D9
:10298000F785E02DEC80FD8086019601A2016D8522
:102990007E85C40109953694EFEF6E1A7E0A4C0CC1
:1029A0005D1C2A853B856216730609F0BDCF239412
:1029B0003FEFA31AB30A4D855E854C0D5D1D5E8702
:1029C0004D8756E02512A1CFBDC0FA01349634914F
:1029D000329785919491231BA7E02A9F800D911D2A
:1029E0001124FA01259134913A8B298BFC01259011
:1029F0003490FC01329634913887319644914C875B
:102A00003196E491FC013596A491319684915B81D5
:102A1000523050F06A2E0A2E000C7708E82F082E4C
:102A2000000CFF0BFB87EA87FB81CF2ED12C6C9C1F
:102A300090016D9C300D7C9C300D1124A901460F36
:102A4000571F588B4F871C82A12CEA2FAA0FFF0B10
:102A50003B016E0E7F1E5885650F711DDB01AE0FA9
:102A6000BF1FBF8BAE8BE981FA81E80FF11D87FD97
:102A7000FA95F98FE88F9C85A91608F063C08A2D16
:102A800090E04A855B85480F591F4C9D90014D9DF4
:102A9000300D5C9D300D1124A981BA81A20FB31FA6
:102AA000BE87AD877B8E6A8E4F845888BC81B619ED
:102AB000BB8BE88DF98DE80FF91FFD8BEC8B8B89B3
:102AC000FA8D8F0F2A8D3B8D4E895F89241735072C
:102AD00099F1877041F4C1010196E989FA89E20D03
:102AE000F31DB4901C01B7FE1EC0D401ED91FC9102
:102AF000BB81B13061F40480F581E02D2E813F81EE
:102B00004C895D896A8D7B8DC40109950CC0068452
:102B1000F785E02DEE80FF80860196014D855E856C
:102B2000B201C4010995BB0CEA8DFB8D3196FB8F78
:102B3000EA8F4C0C5D1CC3CF5C818885580F5C8389
:102B4000A39499CF6B960FB6F894DEBF0FBECDBF9E
:102B5000DF91CF911F910F91FF90EF90DF90CF9079
:102B6000BF90AF909F908F907F906F905F904F90AD
:102B70003F902F900895E6E1F6E01382128288EEEE
:102B800093E0A0E0B0E084839583A683B7838AE0D6
:102B900095E0918380830895789484B5826084BDA4
:102BA00084B5816084BD85B5826085BD85B5816051
:102BB00085BD80916E00816080936E0010928100CF
:102BC000809181008260809381008091810081608A
:102BD000809381008091800081608093800080914B
:102BE000B10084608093B1008091B00081608093D7
:102BF000B00080917A00846080937A0080917A009E
:102C0000826080937A0080917A00816080937A005C
:102C100080917A00806880937A001092C1006AE007
:102C200070E080E090E00E94EC1289E090E00E9469
:102C3000F5188C0184E695E0F80191838083148275
:102C4000158216821782108610934D0600934C064B
:102C500085E290E00E94F518EC0185E2FE011192F8
:102C60008A95E9F7DE018EE695E08D939D938AE1E2
:102C7000E6E4F5E001900D928A95E1F78DE090E0B1
:102C80009D8F8C8FD0934B06C0934A068AE090E0CC
:102C90000E94F518FC01809148069091490628E7AA
:102CA00035E0318320831382128215830483D78316
:102CB000C68391878087F0934706E0934606C0E07D
:102CC000D0E06AE070E080E090E00E94EC12209793
:102CD000C1F30E940000F5CF97FB072E16F4009475
:102CE00007D077FD09D00E94A21607FC05D03EF45C
:102CF000909581959F4F0895709561957F4F0895A8
:102D0000A1E21A2EAA1BBB1BFD010DC0AA1FBB1FEF
:102D1000EE1FFF1FA217B307E407F50720F0A21B61
:102D2000B30BE40BF50B661F771F881F991F1A94CE
:102D300069F760957095809590959B01AC01BD01F8
:102D4000CF010895AA1BBB1B51E107C0AA1FBB1FDF
:102D5000A617B70710F0A61BB70B881F991F5A9527
:102D6000A9F780959095BC01CD010895EE0FFF1F46
:102D70000590F491E02D09945058BB27AA270E9492
:102D8000D4160C9425180E94171838F00E941E18AB
:102D900020F039F49F3F19F426F40C9414180EF423
:102DA000E095E7FB0C940E18E92F0E94361858F3B3
:102DB000BA17620773078407950720F079F4A6F520
:102DC0000C9458180EF4E0950B2EBA2FA02D0B0181
:102DD000B90190010C01CA01A0011124FF27591B60
:102DE00099F0593F50F4503E68F11A16F040A22F66
:102DF000232F342F4427585FF3CF469537952795D7
:102E0000A795F0405395C9F77EF41F16BA0B620BD5
:102E1000730B840BBAF09150A1F0FF0FBB1F661F1C
:102E2000771F881FC2F70EC0BA0F621F731F841F5F
:102E300048F4879577956795B795F7959E3F08F085
:102E4000B0CF9395880F08F09927EE0F9795879547
:102E500008950E943D170C9425180E941E1858F0E2
:102E60000E94171840F029F45F3F29F00C940E18C7
:102E700051110C9459180C9414180E94361868F3C8
:102E80009923B1F3552391F3951B550BBB27AA2723
:102E900062177307840738F09F5F5F4F220F331F5D
:102EA000441FAA1FA9F335D00E2E3AF0E0E832D025
:102EB00091505040E695001CCAF72BD0FE2F29D028
:102EC000660F771F881FBB1F261737074807AB07FA
:102ED000B0E809F0BB0B802DBF01FF2793585F4F6F
:102EE0003AF09E3F510578F00C940E180C94591846
:102EF0005F3FE4F3983ED4F3869577956795B79551
:102F0000F7959F5FC9F7880F911D9695879597F95B
:102F10000895E1E0660F771F881FBB1F62177307D4
:102F20008407BA0720F0621B730B840BBA0BEE1FE9
:102F300088F7E09508950E94A2176894B1110C9447
:102F4000591808950E943E1888F09F5798F0B92F9D
:102F50009927B751B0F0E1F0660F771F881F991FCE
:102F60001AF0BA95C9F714C0B13091F00E94581800
:102F7000B1E008950C945818672F782F8827B85F10
:102F800039F0B93FCCF3869577956795B395D9F726
:102F90003EF490958095709561957F4F8F4F9F4F30
:102FA0000895E89409C097FB3EF49095809570953C
:102FB00061957F4F8F4F9F4F9923A9F0F92F96E985
:102FC000BB279395F695879577956795B795F111FA
:102FD000F8CFFAF4BB0F11F460FF1BC06F5F7F4F97
:102FE0008F4F9F4F16C0882311F096E911C07723A9
:102FF00021F09EE8872F762F05C0662371F096E8B2
:10300000862F70E060E02AF09A95660F771F881F80
:10301000DAF7880F9695879597F9089597F99F673E
:1030200080E870E060E008959FEF80EC0895002450
:103030000A941616170618060906089500240A941D
:1030400012161306140605060895092E0394000CA3
:1030500011F4882352F0BB0F40F4BF2B11F460FF32
:1030600004C06F5F7F4F8F4F9F4F089557FD90585B
:10307000440F551F59F05F3F71F04795880F97FB3C
:10308000991F61F09F3F79F08795089512161306F6
:103090001406551FF2CF4695F1DF08C01616170625
:1030A0001806991FF1CF869571056105089408955A
:1030B000E894BB2766277727CB0197F908950E94EC
:1030C000D11808F48FEF08950E9477180C942518F2
:1030D0000E94171838F00E941E1820F0952311F056
:1030E0000C940E180C94141811240C9459180E9466
:1030F000361870F3959FC1F3950F50E0551F629FEE
:10310000F001729FBB27F00DB11D639FAA27F00D40
:10311000B11DAA1F649F6627B00DA11D661F829F67
:103120002227B00DA11D621F739FB00DA11D621F4C
:10313000839FA00D611D221F749F3327A00D611D69
:10314000231F849F600D211D822F762F6A2F11244B
:103150009F5750409AF0F1F088234AF0EE0FFF1F7E
:10316000BB1F661F771F881F91505040A9F79E3FD5
:10317000510580F00C940E180C9459185F3FE4F33D
:10318000983ED4F3869577956795B795F795E7952B
:103190009F5FC1F7FE2B880F911D9695879597F934
:1031A0000895990F0008550FAA0BE0E8FEEF1616D8
:1031B0001706E807F907C0F012161306E407F5072B
:1031C00098F0621B730B840B950B39F40A2661F09F
:1031D000232B242B252B21F408950A2609F4A14042
:1031E000A6958FEF811D811D0895CF93DF938230C7
:1031F000910510F482E090E0E0915906F0915A06B2
:1032000020E030E0C0E0D0E0309711F14081518102
:1032100048175907C0F04817590761F48281938114
:10322000209719F09B838A832BC090935A06809332
:10323000590626C02115310519F04217530718F415
:103240009A01BE01DF01EF010280F381E02DDCCFA6
:103250002115310509F1281B390B2430310590F473
:1032600012968D919C9113976115710521F0FB01C8
:103270009383828304C090935A0680935906FD017C
:10328000329644C0FD01E20FF31F819391932250C7
:1032900031092D933C933AC020915706309158063E
:1032A000232B41F4209102053091030530935806F9
:1032B0002093570620910005309101052115310515
:1032C00041F42DB73EB74091040550910505241BEC
:1032D000350BE0915706F0915806E217F307A0F47A
:1032E0002E1B3F0B2817390778F0AC014E5F5F4F5C
:1032F0002417350748F04E0F5F1F50935806409330
:1033000057068193919302C0E0E0F0E0CF01DF9196
:10331000CF9108950F931F93CF93DF93009709F4F4
:103320008CC0FC01329713821282009159061091D1
:103330005A060115110581F420813181820F931FF6
:1033400020915706309158062817390779F5F093E0
:103350005806E093570671C0D80140E050E0AE1720
:10336000BF0750F412962D913C911397AD01211592
:10337000310509F1D901F3CF9D01DA0133832283AD
:1033800060817181860F971F8217930769F4EC01A2
:1033900028813981260F371F2E5F3F4F31832083CD
:1033A0008A819B8193838283452B29F4F0935A066B
:1033B000E093590642C01396FC93EE931297ED01E9
:1033C000499159919E01240F351FE217F30771F4BB
:1033D00080819181840F951F029611969C938E9304
:1033E0008281938113969C938E931297E0E0F0E094
:1033F000D80112968D919C911397009719F0F801BE
:103400008C01F6CF8D919C9198012E5F3F4F820FDA
:10341000931F20915706309158062817390769F4F1
:10342000309729F410925A061092590602C013825E
:1034300012821093580600935706DF91CF911F9187
:103440000F91089581E090E0F8940C94FF1CAEE099
:10345000B0E0EDE2FAE10C94D61C0D891E8986E0FD
:103460008C831A8309838FEF9FE79E838D83AE0140
:10347000475E5F4F6F89788DCE0101960E944A1A90
:103480002F813885F801E20FF31F10822E96E4E0B9
:103490000C94F21CACE0B0E0E0E5FAE10C94C81C3E
:1034A0007C016B018A01FC0117821682838181FFF6
:1034B000BDC1CE0101964C01F7019381F60193FD48
:1034C000859193FF81916F01882309F4ABC1853207
:1034D00039F493FD859193FF81916F01853229F431
:1034E000B70190E00E94321CE7CF512C312C20E034
:1034F0002032A0F48B3269F030F4803259F08332FC
:1035000069F420612CC08D3239F0803339F42160A8
:1035100026C02260246023C0286021C027FD27C068
:1035200030ED380F3A3078F426FF06C0FAE05F9E9F
:10353000300D1124532E13C08AE0389E300D112413
:10354000332E20620CC08E3221F426FD6BC1206424
:1035500006C08C3611F4206802C0883641F4F601AA
:1035600093FD859193FF81916F018111C1CF982FB8
:103570009F7D9554933028F40C5F1F4FFFE3F98330
:103580000DC0833631F0833771F0833509F05BC0AD
:1035900022C0F801808189830E5F1F4F4424439429
:1035A000512C540115C03801F2E06F0E711CF80166
:1035B000A080B18026FF03C0652D70E002C06FEFD0
:1035C0007FEFC5012C870E94271C2C0183012C85CD
:1035D0002F77222E17C03801F2E06F0E711CF80110
:1035E000A080B18026FF03C0652D70E002C06FEFA0
:1035F0007FEFC5012C870E941C1C2C012C852068A4
:10360000222E830123FC1BC0832D90E0481659060F
:10361000B0F4B70180E290E00E94321C3A94F4CFFB
:10362000F50127FC859127FE81915F01B70190E0AC
:103630000E94321C31103A94F1E04F1A51084114A3
:10364000510471F7E5C0843611F0893639F5F80177
:1036500027FF07C060817181828193810C5F1F4FBA
:1036600008C060817181072E000C880B990B0E5FDA
:103670001F4F2F76722E97FF09C0909580957095F9
:1036800061957F4F8F4F9F4F2068722E2AE030E068
:10369000A4010E946A1CA82EA81844C0853729F4EA
:1036A0002F7EB22E2AE030E025C0F22FF97FBF2E08
:1036B0008F36C1F018F4883579F0B4C0803719F02E
:1036C000883721F0AFC02F2F2061B22EB4FE0DC07D
:1036D0008B2D8460B82E09C024FF0AC09F2F9660EE
:1036E000B92E06C028E030E005C020E130E002C07D
:1036F00020E132E0F801B7FE07C06081718182816C
:1037000093810C5F1F4F06C06081718180E090E063
:103710000E5F1F4FA4010E946A1CA82EA818FB2D43
:10372000FF777F2E76FE0BC0372D3E7FA51450F419
:1037300074FE0AC072FC08C0372D3E7E05C0BA2C4C
:10374000372D03C0BA2C01C0B52C34FF0DC0FE01CB
:10375000EA0DF11D8081803311F4397E09C032FFFA
:1037600006C0B394B39404C0832F867809F0B39451
:1037700033FD13C030FF06C05A2CB31418F4530C99
:103780005B18B32CB31468F4B70180E290E03C8777
:103790000E94321CB3943C85F5CFB31410F43B184F
:1037A00001C0312C34FF12C0B70180E390E03C87A8
:1037B0000E94321C3C8532FF17C031FD03C088E7F0
:1037C00090E002C088E590E0B7010CC0832F8678B6
:1037D00059F031FF02C08BE201C080E237FD8DE27B
:1037E000B70190E00E94321CA51438F4B70180E3C1
:1037F00090E00E94321C5A94F7CFAA94F401EA0D8B
:10380000F11D8081B70190E00E94321CA110F5CF1C
:10381000332009F451CEB70180E290E00E94321CBF
:103820003A94F6CFF7018681978102C08FEF9FEF20
:103830002C96E2E10C94E41CFC0105906150704070
:103840000110D8F7809590958E0F9F1F0895FC0169
:103850006150704001900110D8F7809590958E0FBF
:103860009F1F08950F931F93CF93DF93FB01238135
:1038700021FD03C08FEF9FEF28C022FF16C04681B5
:103880005781248135814217530744F4A081B181C7
:103890009D012F5F3F4F318320838C932681378199
:1038A0002F5F3F4F3783268310C0EB01092F182F5E
:1038B0000084F185E02D0995892BE1F68E819F81A9
:1038C00001969F838E83812F902FDF91CF911F913F
:1038D0000F910895FA01AA27283051F1203181F182
:1038E000E8946F936E7F6E5F7F4F8F4F9F4FAF4F08
:1038F000B1E03ED0B4E03CD0670F781F891F9A1F1B
:10390000A11D680F791F8A1F911DA11D6A0F711DCE
:10391000811D911DA11D20D009F468943F912AE0DA
:10392000269F11243019305D3193DEF6CF010895C2
:10393000462F4770405D4193B3E00FD0C9F7F6CFF3
:10394000462F4F70405D4A3318F0495D31FD4052BB
:10395000419302D0A9F7EACFB4E0A6959795879551
:1039600077956795BA95C9F7009761057105089530
:103970009B01AC010A2E06945795479537952795DC
:10398000BA95C9F7620F731F841F951FA01D089574
:103990002F923F924F925F926F927F928F929F925F
:1039A000AF92BF92CF92DF92EF92FF920F931F934D
:1039B000CF93DF93CDB7DEB7CA1BDB0B0FB6F894FE
:1039C000DEBF0FBECDBF09942A88398848885F843E
:1039D0006E847D848C849B84AA84B984C884DF80AF
:1039E000EE80FD800C811B81AA81B981CE0FD11D93
:1039F0000FB6F894DEBF0FBECDBFED010895F89469
:023A0000FFCFF6
:103A020000000000000000000000000000000000B4
:103A120000000000000000000000000000000000A4
:103A22000000000000000000000000000000000094
:103A32000000000000000000000000000000008004
:103A42008080000000000000000000000000000074
:103A5200008080C0C00000000000000000000000E4
:103A62000000000000000000000000000000000054
:103A72000000000000000000000000000000000044
:103A82000000000000000000000000000000000034
:103A92000000000080C0E0F0F8FCF8E00000000048
:103AA2000000000000000000000000000080808094
:103AB200808000808000000000808080808000FF85
:103AC200FFFF0000000080808080000080800000F6
:103AD20080FFFF8080008080008080808000808066
:103AE2000000000000808000008C8E84000080F8BE
:103AF200F8F8800000000000000000000000000054
:103B0200F0F0F0F0F0F0F0F0F0F0F0F0E0E0C08073
:103B120000E0FCFEFFFFFF7FFFFFFFFFFF00000052
:103B22000000000000000000000000FEFFC70101CD
:103B3200010183FFFF00007CFEC70101010183FF39
:103B4200FFFF0038FEC78301010183C7FFFF0000AA
:103B520001FFFF010100FFFF0701010100007FFFDC
:103B620080000000FFFF7F0000FFFFFF000001FF59
:103B7200FFFF010000000000000000000000000044
:103B8200030F3F7F7FFFFFFFFFFFFFFFE7C7C78FE7
:103B92008F9FBFFFFFC3C0F0FFFFFFFFFFFCFCFCD6
:103BA200FCFCFCFCFCF8F8F0F0E0C00001030303AD
:103BB20003030103030000000001030303030101E7
:103BC20003010000000103030303010103030000DA
:103BD20000030300000003030000000000000001D6
:103BE20003030303030100000001030100000003BB
:103BF20003010000000000000000000000000000BF
:103C020000000080C0E0F0F9FFFFFFFFFF3F1F0F41
:103C120087C7F7FFFF1F1F3DFCF8F8F8F87C7DFF10
:103C2200FFFFFFFFFFFFFF7F3F0F07003030000065
:103C32000000000000000000000000000000000082
:103C420000000000FEFEFC0000000000000000007A
:103C520000000000000000000000000000E0C000C2
:103C620000000000000000000000303000000000F2
:103C72000000000000000000000000000000000042
:103C820000C0FEFFFFFFFFFFFFFFFFFF7F7F3F1F21
:103C92000F071F7FFFFFF8F8FFFFFFFFFFFEF8E0AF
:103CA200000000010000000000000000FEFE000015
:103CB20000FCFEFC0C06060EFCF80000F0F81C0EE0
:103CC2000606060CFFFFFF0000FEFE00000000FCDF
:103CD200FEFC00183C7E66E6CE84000006FFFF066E
:103CE20006FCFEFC0C0606060000FEFE0000C0F804
:103CF200FC4E4646464E7C7840183C76E6CECC805A
:103D020000000000000000000000000000000000B1
:103D12000000000001070F1F1F3F3F3F3F1F0F031F
:103D22000000000000000000000000000F0F000073
:103D3200000F0F0F000000000F0F000003070E0C12
:103D420018180C060F0F0F0000010F0E0C180C0FA5
:103D5200070100040E0C180C0F070000000F0F00E3
:103D6200000F0F0F0000000000000F0F00000007FF
:103D7200070C0C181C0C060600040E0C180C0F077E
:103D82000000000000000000000000000000000031
:103D92000000000000000000000000000000000021
:103DA2000000000000000000000000000000000011
:103DB2000000000000000000000000000000000001
:103DC20000000000000000000000000000000000F1
:103DD20000000000000000000000000000000000E1
:103DE20000000000000000000000000000000000D1
:103DF20000000000000000000000000000000000C1
:103E020000005B068000000000005C0A2C0AF20938
:103E1200E309D509D40900000000921166110001DE
:103E220003070F1F3F7F0080C0E0F0F8FCFE000098
:103E320000008B0A66113609D6058006DA07870567
:103E420025050705911194029402000094020000D6
:103E5200FE019402000002030000000000007C0149
:103E6200000000008D0F360D900D00000000800D47
:103E7200F2109210000000008C0F810D5641523A50
:103E8200202573206D2F7300414C543A2025732056
:103E92006D00544D503A20257320256343000D0ACE
:023EA20000001E
:00000001FF
